:10000000680804000000000000000000000000007C
:1000100000000000000000000000000000000000E0
:1000200000000000000000000000000000000000D0
:100030000000000096080000000000000000000022
:1000400000000000000000000000000000000000B0
:1000500000000000000000000000000000000000A0
:100060000000000000000000000000000000000090
:100070000000000000000000000000000000000080
:1010D000EF812000F0FF200020A0B70000002000DA
:1010E00034A0B700400020004420B700EE08020002
:1010F000000000008A1F780035FE07001AC0B30008
:10110000C3FD0700CAC0B300C1FD070023FE0700EE
:10111000C002A800C9E2A900CDE2A900E2FF0700D1
:0C112000FFFF37004F057800FFFF37008D
:1009D0000000FA0089FF070088FF0700C862A9002D
:1009E000C842A900C882A900C8A2A900C8C2A9001B
:1009F000C8E2A900CC62A900CC42A900CCE2A900BF
:100A0000CCC2A900CCA2A900CC82A900CCA2A8008B
:100A1000CC82A800C4FE07007FFE0700C2FE0700CC
:100A20007DFE0700C0FE07007BFE0700CC82A90008
:100A3000BDFE070078FE0700BBFE0700CCA2A900A0
:100A4000CCE2A800B8FE070073FE0700CCE2A900C4
:100A5000CC82A800B4FE0700CC82A900B2FE070039
:100A60006DFE0700B0FE0700CC82A800AEFE0700B6
:100A700069FE0700CC82A900ABFE0700CCE2A8000B
:100A8000CCC2A800CCA2A800CC82A800A6FE070079
:100A900061FE0700A08020001000A0000080FA0086
:040AA000000006004C
:1007FC00574123000E20ED00FEFF3A0000000000E0
:04080C0000000600E2
:100528000000FA00CC62A800B3FF0700CC62A90063
:0C053800B1FF07000080FA000000060080
:1004000000000000000000000000000000000000EC
:080410000000000000000600DE
:10041800E73C22000E20ED00FEFF3A00000000003D
:080428000000000000000600C6
:100810000000FA008A80FB0002E0AE00CCE2A900F2
:1008200002E0AF00CCE2A80002C0AE00CCC2A9003A
:1008300002C0AF00CCC2A80002A0AE00CCA2A900AA
:1008400002A0AF00CCA2A8000280AE00CC82A9001A
:100850000280AF00CC82A800A08020001000A6007B
:10086000CC42A8001000A700CC42A9002EFF070030
:100870000260AE00CCE2A9000260AF00CCE2A800AA
:100880000240AE00CCC2A9000240AF00CCC2A8001A
:100890000220AE00CCA2A9000220AF00CCA2A8008A
:1008A0000200AE00CC82A9000200AF00CC82A800FA
:1008B000A08020001000A600CC42A8001000A700D5
:1008C000CC42A90018FF0700A08020001000A6005D
:1008D00002003700D0FE070001003700D4FE0700F9
:0808E0000080FA000000060090
:10043000370520000E20ED00FEFF3A00000000000E
:0404400000000600B2
:10099C000000FA0060832000E0408800000E200078
:1009AC0020A3B7002143A9002223EF00F0F321007C
:1009BC0024A3B7003023EF0021E3A8000080FA0045
:0409CC000000060021
:1010A8000000280004A1B7009460A8008460A9008B
:1010B80001002100400A200010887000401F200015
:0810C80002A1B70000000600C0
:1011DC0001802000408E280004000900B01878001F
:0411EC0000000600F9
:10112C003400F8003600F800801F78002000200002
:10113C000C000900B01F78008A1F78008B1F780004
:10114C008C1F78008460A900CDE2AA001420EF0067
:10115C00C3FF070060408800CF80DE000081EB00F9
:10116C004DFE07000200200053EA230013FD070088
:10117C00C0408800D1408800EC8020000005BE00F3
:10118C00A0FE0700EC8020001B0020001A002000AD
:10119C00D2FD07004F067800CF0578004F05780088
:1011AC00A00120000C0009004F1078004F007800BF
:0C11BC003600F9003400F9000040060085
:10106C000000FA00100020000A00DD008080EA0079
:10107C00C0322000108860004A1988002023A80084
:10108C002003AF0001003700FDFF37002003A9004B
:0C109C000083BF000080FA000000060086
:100C10000600FA008A1F78008B1F78000000200071
:100C20004047980000002000504798000A079800AD
:100C30001B0798000E0190009E019000F0FF2F000E
:100C4000F1FF2F000010E1000198E10005003A00DB
:100C50006B8020000C0578003AFE070030C0B3001E
:100C6000FE00370016C0B30060004700630040007C
:100C70001040780000E0AE000D0037006000470033
:100C8000630140009280FB000008200000806800A3
:100C900000497800E1404300D0C2B300004E780024
:100CA000610046000006780001427800010037002C
:100CB000064278000E0090009E0090006000E10067
:100CC0006088E10005003A000B8020000C057800E8
:100CD0001CFE07000020EF00E00037000E0190002E
:100CE0009E0190000000200001F827000010E100A4
:100CF0000198E10005003A002B8020000C057800E7
:100D000010FE070004407800D40037008C1F7800E4
:100D10008A9FBE000200200003F823000E0090000E
:100D20009E00900016FE07000000E0000060EF004B
:100D300001003D000060EC004F05BE004F0678004A
:100D40000040E2000F0032008C1F78008A9FBE0036
:100D50000E0090009E00900002002000031224006C
:100D600019FE07004F05BE004F06780000079800E7
:100D700011079800DE4090006500470061C85000F0
:100D8000E2FF37008C1F78008A9FBE00020020001F
:100D9000031224000E0090009E00900005FE070044
:100DA0000000E0000060EF00010035000060EC0092
:100DB0004F05BE004F0678000040E2000F003200F1
:100DC0008C1F78008A9FBE000E0090009E0090004D
:100DD000D2CC2C00C3DC2300FBFD07004F05BE0076
:100DE0004F0678000007980011079800DE40900039
:100DF0006500470061C84000E2FF3700600147001E
:100E00003200D000A280D20000079800110798009D
:100E1000600047006300400090407800F0C7B300D6
:100E200000C1500060004700E300400010C0B30064
:100E3000804878008281FB00600147001200BE00FC
:100E40008301E900030035000000D0008180D2005A
:100E5000FBFF37000007980011079800600047006B
:100E600063004000010320001080FB000080400070
:100E7000004E780061004600000678005E40900059
:100E80006104E100040035005E4090006604E1006A
:100E900001003C0006003700E0C2B300004E7800BD
:100EA000610046000006780010C0B300404798007B
:100EB00065C0B300602CE1002C00320060004700E8
:100EC000E30040000020EF00804878006000470009
:100ED000B001D0002082D2008301D0000482D20071
:100EE0006001470032804100A2004A0000079800DC
:100EF00011079800600147003200D000A280D200A4
:100F00000007980011079800600047006300400048
:100F1000010320001080FB0000804000004E78009C
:100F200061004600000678004E4090006004E10039
:100F30000B003A005E4090000060ED0050479800C2
:100F40006004E10006003A00E0C2B300004E780001
:100F5000610046000006780010C0B30040479800CA
:100F600061C0520080427800D2FF3700F0FF2F00AE
:100F7000000046009040780000C3B300000CE10080
:100F800003003A006100560000067800F7FF3700C2
:100F9000F0FF2F000000460090407800E0C2B30050
:100FA000000CE10002003A006100560000067800E3
:100FB0005E4090006004E1002500320050C6B3009E
:100FC000004E780061004600000678005E40900008
:100FD0006004E10007003D00D0C2B300004E78007D
:100FE0006100460000067800DE4090006500470082
:100FF00060C81000DE4190005E4090006904E1008E
:101000000A0036000380FB00A20020001100090046
:101010000200D8008000780000032000010040009A
:10102000004E780061004600000678000380FB0057
:10103000A2002000110009000200D80000032000D7
:1010400001004000004E7800610046000006780074
:101050000020EF00004E78000020EF00CF05780060
:0C1060004F0578000080FA000000060038
:100544000000FA000A00780000017800E101400090
:100554008B0078006180450080057800114978009F
:100564001204E0000200320003007800F6FF3700B6
:0C0574000A0078000080FA000000060079
:100580000000FA0014002000AEFF07000080FA000F
:040590000000060061
:100444000000FA000200070090020400000000000F
:10045400841F7800140007004F0078001100330057
:10046400F0FF2F00838F6C0006003B00040565003D
:100474000A00A7000800370009F0A60010002000B9
:1004840008003700820F5400838F5C00030039009A
:100494001000200001003E000000200009F0A70029
:1004A4000000EA00000006000084BE000600070009
:1004B4000083BE000485BE000280BE000200070067
:1004C400844F750000000600C70ADE00F107B20081
:1004D400F50FB20008003200E1CF42000200320002
:1004E40002E0A80024000500810F70000100320022
:1004F4000408050044000500810F700002003A0062
:10050400140005008502E9000000400081C0480095
:10051400FCFF3B0002E0A800240005000080FA0074
:0405240000000600CD
:1005B4000000FA00F4FF2F00A1FF07000080FA00FA
:0405C400000006002D
:1005C8000000FA0002000700FA030400000000001F
:1005D800889FBE008A9FBE008C1F780030000700ED
:1005E8003700330003866C006450E10024003200B9
:1005F8006420E100270032006150E100220032004F
:100608006120E100210032008B854200EB07B10038
:100618000134B800003AB8000804420089844A004E
:10062800013AB8000030B8008880400009014A004B
:1006380004003300000040008180480002014900A6
:100648008B05E900C909DD00830170000100320053
:1006580013002000C814DE004814DD004709DE003E
:100668001200B200C808DE000884700024000700E9
:1006780001F0A1000CF0A70003E0A8001900370062
:100688006120E1001B0032000881BE000280BE002C
:10069800F7FF37006150E100FCFF3A001500370012
:1006A8000084BE003C0007000083BE000485BE0035
:1006B8000280BE0038000700844F75000000060065
:1006C8000280BE006450E100050036006420E100AD
:1006D800020036000968A30001003A000880BE0045
:1006E80002C0A8004F0678004F05BE004F04BE00A8
:1006F80000000600F0FF2F00F1FF2700F9FF370088
:1007080081002000618055000B003D000B00200097
:1007180061FE2F000100E1001D003400828171009C
:10072800610164008904D1000884D3000000E80056
:10073800FAFF3A00710020006100640003007000B5
:10074800020060000900320061044400E0844C00AB
:100758000988A500050032008B05E8006808E1005B
:1007680002003A008904D1000884D300F20F200067
:100778000258E10005003D00C75DDD00F907B20041
:100788008980750008008800000006000BF8270023
:100798001B00880000000500C70ADE00F107B20050
:1007A800F50FB20008003200E1CF4200020032002B
:1007B80002E0A80024000500810F7000010032004B
:1007C8000408050044000500810F700002003A008B
:1007D800140005008502E9000000400081C04800BF
:1007E800FCFF3B0002E0A800240005000080FA009E
:0407F80000000600F7
:1008E8000000FA008A1F78000A0037000A08200072
:1008F800110037000A0C20000F0037004A092000B9
:100908000D0037004A0D20000B0037000A082000B0
:10091800090037006150E100F4FF32006250E10045
:10092800F4FF32006350E100F4FF32006450E1004C
:10093800F4FF3200F5FF37006180550000004500E4
:100948000005780000457800AFFF0700A080200070
:100958001000A1000420EF00020046001004E0008F
:1009680007003200020046008A1F78001045780010
:1009780006FF07004F0578000420EC00F6FF37005B
:10098800A08020001000A0004F0578000080FA0029
:040998000000060055
:100594000000FA00A08020001000A1009B000700CA
:1005A400A08020001000A0000080FA0000000600D7
:0005B40047
:100AA4000000FA0002000700040604000000000031
:100AB4000400E20006003A000005EB000200E20038
:100AC4000F003E000000E200270032000C00370057
:100AD400A10088000200E2000400350008003C0088
:100AE4000000E20020003200050037006000100022
:100AF400E080180002003B0001F02C001A003700CF
:100B04000084BE006011B8006B0920000982CF0088
:100B1400020039000882CF000441B000694252004B
:100B24000E00320008003B00828171006101640004
:100B34008904D1000884D3008B05E8000442E8004E
:100B4400F9FF3A00050037000804440089844C008A
:100B54008B05E9000442E900FBFF3A0003000700AB
:100B64000AF0A70003E0A8000000060081002000AE
:100B7400618055000B003D000B00200061FE2F003A
:100B84000100E1001D0034008281710061016400F4
:100B94008904D1000884D3000000E800FAFF3A0079
:100BA4007100200061006400030070000200600016
:100BB4000900320061044400E0844C000988A50067
:100BC400050032008B05E8006808E10002003A00E5
:100BD4008904D1000884D300F20F20000258E100F8
:100BE40005003D00C75DDD00F907B200898075008E
:100BF40008008800000006000BF827001B0088008E
:0C0C0400000005000080FA00000006005F
:0411C80030000000F3
:0811CC00494E0000460000003E
:0811D4004E6100004E00000016
:0200000401F009
:200000000F000000FFFF00000700000082000000A50000005F000000F7000000C30000008C
:00000001FF
